:020000040000FA
:100000000C9480000C94A8000C94A8000C94A800F8
:100010000C94A8000C94A8000C94A8000C94A800C0
:100020000C94A8000C94A8000C94A8000C94A800B0
:100030000C94A8000C94A8000C94A8000C94A800A0
:100040000C94ED070C94A8000C94BB070C94950736
:100050000C94A8000C94A8000C94A8000C94A80080
:100060000C94A8000C94A8000000000024002700B5
:100070002A0000000000250028002B0000000008D6
:10008000000201000003040700000000000000005F
:100090002C202054656D70657261747572653A200C
:1000A0000048756D69646974793A20004661696C2D
:1000B000656420746F20726561642066726F6D20C4
:1000C0004448542073656E736F7221000000000075
:1000D000230026002900040404040404040402028A
:1000E00002020202030303030303010204081020B7
:1000F0004080010204081020010204081020370883
:1001000011241FBECFEFD8E0DEBFCDBF11E0A0E0CD
:10011000B1E0E0E8F9E102C005900D92AE35B1071B
:10012000D9F722E0AEE5B1E001C01D92A631B207D9
:10013000E1F710E0C0E8D0E004C02197FE010E9482
:10014000B80CCF37D107C9F70E9484080C94BE0CB5
:100150000C9400008F929F92AF92BF92CF92DF9249
:10016000EF92FF92CF93DF93A0910B0230E08111C9
:100170003A2F80910C0290E0880F991FAC014453F4
:100180005F4FC0901102D0901202E0901302F090E5
:10019000140260E070E0CB01FA01C591D49128818E
:1001A0002A2323130FC04B015C012FEF821A920AFE
:1001B000A20AB20A6C157D058E059F0570F060E0FD
:1001C00070E0CB01DF91CF91FF90EF90DF90CF9067
:1001D000BF90AF909F908F900895C501B401DCCF80
:1001E000AF92BF92CF92DF92EF92FF920F931F9345
:1001F000CF93DF936C017B018B01040F151FEB0183
:100200005E01AE18BF08C017D10759F06991D60139
:10021000ED91FC910190F081E02DC6010995892BAB
:1002200079F7C501DF91CF911F910F91FF90EF906A
:10023000DF90CF90BF90AF900895FC01538D448D17
:10024000252F30E0842F90E0821B930B541710F081
:10025000CF96089501970895FC01918D828D98178E
:1002600061F0A28DAE0FBF2FB11D5D968C91928D66
:100270009F5F9F73928F90E008958FEF9FEF089597
:10028000FC01918D828D981731F0828DE80FF11D60
:10029000858D90E008958FEF9FEF0895FC01918D7B
:1002A000228D892F90E0805C9F4F821B91098F7374
:1002B0009927089587E691E00E944E0121E0892B5D
:1002C00009F420E0822F089580E090E0892B29F046
:1002D0000E945A0181110C9400000895FC01A48D24
:1002E000A80FB92FB11DA35ABF4F2C91848D90E058
:1002F00001968F739927848FA689B7892C93A0893B
:10030000B1898C91837080648C93938D848D9813C4
:1003100006C00288F389E02D80818F7D8083089557
:10032000EF92FF920F931F93CF93DF93EC0181E045
:10033000888F9B8D8C8D98131AC0E889F9898081EC
:1003400085FF15C09FB7F894EE89FF896083E8891F
:10035000F98980818370806480839FBF81E090E011
:10036000DF91CF911F910F91FF90EF900895F62E9E
:100370000B8D10E00F5F1F4F0F731127E02E8C8D38
:100380008E110CC00FB607FCFACFE889F98980817D
:1003900085FFF5CFCE010E946E01F1CFEB8DEC0F02
:1003A000FD2FF11DE35AFF4FF0829FB7F8940B8F9A
:1003B000EA89FB8980818062CFCF0F931F93CF930F
:1003C000DF938C01D0E0C0E0F801EC0FFD1F6491D9
:1003D000662341F087E691E00E949001892B11F09D
:1003E0002196F2CFCE01DF91CF911F910F91089509
:1003F000CF93DF93EC01888D8823B9F0AA89BB895C
:10040000E889F9898C9185FD03C0808186FD0DC046
:100410000FB607FCF7CF8C9185FFF2CF808185FF67
:10042000EDCFCE010E946E01E9CFDF91CF9108950B
:1004300090E0FC01E458FF4F2491FC01E651FF4F8E
:100440003491FC01EA52FF4FE491EE23C9F02223DC
:1004500039F0233001F1A8F4213019F1223029F1CB
:10046000F0E0EE0FFF1FEE58FF4FA591B4918FB74C
:10047000F894EC91611126C030953E233C938FBFD8
:1004800008952730A9F02830C9F0243049F7809129
:1004900080008F7D03C0809180008F7780938000E3
:1004A000DFCF84B58F7784BDDBCF84B58F7DFBCF65
:1004B0008091B0008F778093B000D2CF8091B00050
:1004C0008F7DF9CF3E2BDACFCF93DF9390E0FC0105
:1004D000E651FF4F24918A529F4FFC01849188235B
:1004E000C9F090E0880F991FFC01E859FF4FA591D2
:1004F000B491FC01EE58FF4FC591D49161110DC02C
:100500009FB7F8948C91209582238C93888128231F
:1005100028839FBFDF91CF910895623051F49FB738
:10052000F8943C91822F809583238C93E8812E2B25
:10053000EFCF8FB7F894EC912E2B2C938FBFEACF8F
:100540003FB7F89480915F0190916001A0916101A3
:10055000B091620126B5A89B05C02F3F19F0019606
:10056000A11DB11D3FBFBA2FA92F982F8827BC010D
:10057000CD01620F711D811D911D42E0660F771F35
:10058000881F991F4A95D1F708958F929F92AF9235
:10059000BF92CF92DF92EF92FF924B015C010E94DB
:1005A000A0026B017C010E94A0026C197D098E09DA
:1005B0009F09683E734081059105A8F321E0821AE6
:1005C0009108A108B10888EEC80E83E0D81EE11C8E
:1005D000F11C81149104A104B10429F7FF90EF905C
:1005E000DF90CF90BF90AF909F908F900895CF9263
:1005F000DF92EF92FF920F931F93CF93DF93CDB7CC
:10060000DEB7C054D1400FB6F894DEBF0FBECDBFE9
:100610002FB7F8948091630190916401A0916501D6
:10062000B09166012FBF40910D0250910E02609172
:100630000F02709110028C019D01041B150B260BFB
:10064000370BB901A801403D57406105710590F491
:1006500080911502C05CDE4F0FB6F894DEBF0FBE6E
:10066000CDBFDF91CF911F910F91FF90EF90DF9061
:10067000CF90089580930D0290930E02A0930F02E5
:10068000B093100210920802109207021092060214
:10069000109205021092040261E0809109020E940A
:1006A00018026AEF70E080E090E00E94C50261E00D
:1006B000809109020E94640260E0809109020E9418
:1006C000180264E170E080E090E00E94C502F894B6
:1006D00061E0809109020E9418028BE990E0019785
:1006E000F1F762E0809109020E94640283E290E0E7
:1006F0000197F1F780E00E94AA00672B682B692B15
:1007000029F410921502789480E0A4CF81E00E9431
:10071000AA00672B682B692BA1F38E010F5F1F4F77
:100720006E012FEBC21A2EEFD20A780180E00E94F0
:10073000AA00F701608371838283938381E00E9422
:10074000AA00F7016483758386839783F8E0EF0E30
:10075000F11CEC14FD0451F7789430E020E0F8012E
:10076000C080D180E280F3804481558166817781A9
:10077000C114D104E104F10429F0411551056105CA
:10078000710519F410921502BFCFF90183E0F595B8
:10079000E7958A95E1F7EC5FFD4F8081880FC416DD
:1007A000D506E606F70610F180832F5F3F4F085FFE
:1007B0001F4F2832310599F640910802209104021A
:1007C00080910502280F3327331F80910602280FDE
:1007D000311D80910702820F932F911D9927481791
:1007E000190681F681E08093150234CF8160DCCF59
:1007F000CF92DF92EF92FF92CF93DF93C82F0E94A8
:10080000F702882341F080910A028B3049F018F0FA
:100810008551823008F160E070E080EC9FE715C000
:100820006091060270E090E080E00E94120BCC2301
:1008300061F026E636E646EE5FE30E94C90B20E053
:1008400030E040E052E40E94000ADF91CF91FF9037
:10085000EF90DF90CF900895D09106026D2F6F77C3
:1008600070E090E080E00E94140B20E030E040E86F
:1008700053E40E94C90B6B017C016091070270E098
:1008800090E080E00E94140BA70196010E94000AEC
:100890002DEC3CEC4CEC5DE30E94C90BD7FFC7CFBD
:1008A0009058C5CFFC0101900020E9F73197AF01C6
:1008B000481B590BBC0187E691E00C94F0008F9225
:1008C0009F92AF92BF920F931F93CF93DF93CDB7B9
:1008D000DEB7A1970FB6F894DEBF0FBECDBF19A249
:1008E000423008F44AE08E010F5D1F4F842E912C98
:1008F000B12CA12CA50194010E94960CE62FB90100
:10090000CA01EA30F4F4E05DD801EE938D01232BA7
:10091000242B252B79F790E080E0109719F0CD017A
:100920000E945204A1960FB6F894DEBF0FBECDBF51
:10093000DF91CF911F910F91BF90AF909F908F90BB
:100940000895E95CE1CF4F925F926F927F928F9210
:100950009F92AF92BF92CF92DF92EF92FF920F934E
:100960001F93CF936B017C01742EAC019B010E94FD
:100970007C0C882399F082E191E0CF911F910F9137
:10098000FF90EF90DF90CF90BF90AF909F908F90AF
:100990007F906F905F904F900C94520446015701E6
:1009A000E894B7F82FEF3FEF4FE75FE7C501B401D9
:1009B0000E947C0C81110DC02FEF3FEF4FE75FE7E6
:1009C000C501B4010E946C0A18161CF486E191E07E
:1009D000D4CF2FEF3FEF4FE75FE4C701B6010E948E
:1009E000C40B18161CF48AE191E0C7CF2FEF3FEF3C
:1009F0004FE75FECC701B6010E946C0A87FDF3CF99
:100A000020E030E0A901C701B6010E946C0A10E0A5
:100A100000E087FF0AC06DE287E691E00E94900146
:100A20008C01F7FAF094F7F8F094C0E060E070E021
:100A300080E09FE37C1641F020E030E040E251E4AA
:100A40000E94710ACF5FF6CFA70196010E94000AAB
:100A50002B013C010E94E30A4B015C014AE00E9429
:100A60005F047C01E00EF11ECC23C1F1C501B4018D
:100A70000E94120B9B01AC01C301B2010E94FF094D
:100A80004B015C016EE287E691E00E949001E80E66
:100A9000F91EC15018F120E030E040E251E4C501F8
:100AA000B4010E94C90B2B013C010E94E30A4B01D7
:100AB000B12CA12C4AE0C501B4010E945F04E80EEC
:100AC000F91EC501B4010E94120B9B01AC01C301C8
:100AD000B2010E94FF094B015C01DBCFC701CF913E
:100AE0001F910F91FF90EF90DF90CF90BF90AF904C
:100AF0009F908F907F906F905F904F9008954F924E
:100B00005F926F927F928F929F92AF92BF92CF929D
:100B1000DF92EF92FF920F93CF93DF93CDB7DEB7C3
:100B200028970FB6F894DEBF0FBECDBF6B017C01D6
:100B300049015A0101110EC026E636E646EE5FE392
:100B40000E94C90B20E030E040E052E40E94000A1D
:100B50006B017C0120E030E048E852E4C701B601B7
:100B60000E94FF092AE939E949E95FE30E94C90BBC
:100B70002B013C0120E030E044E752E4C701B6011C
:100B80000E94000A9B01AC01C301B2010E94000A4D
:100B90002B013C0122E133E840EC5DE3C501B401E7
:100BA0000E94C90B9B01AC01C301B2010E94000A63
:100BB00020E030E040E05FE30E94C90B2B013C01E4
:100BC00020E030E04EE952E40E94C40B18160CF00D
:100BD00023C1A7019601C701B6010E94C90B2B01D1
:100BE0003C01A5019401C501B4010E94C90B6D83AC
:100BF0007E838F83988721E133E243E050E4C7018D
:100C0000B6010E94C90B29E134E849E252E40E948E
:100C1000FF0969837A838B839C8326E13BE442E26C
:100C200051E4C501B4010E94C90B9B01AC0169816B
:100C30007A818B819C810E94000A69837A838B83ED
:100C40009C8328E436E246E65EEBC701B6010E94CB
:100C5000C90BA50194010E94C90B9B01AC016981DC
:100C60007A818B819C810E94000A69837A838B83BD
:100C70009C8320EE3FE040EE5BEBC301B2010E949B
:100C8000C90B9B01AC0169817A818B819C810E9497
:100C9000000A69837A838B839C8328EF37E840E6D8
:100CA0005DEB6D817E818F8198850E94C90B9B01D0
:100CB000AC0169817A818B819C810E94000A6983E1
:100CC0007A838B839C832CEA3DE041EA5AE3C3019B
:100CD000B2010E94C90BA50194010E94C90B9B019E
:100CE000AC0169817A818B819C810E94000A6983B1
:100CF0007A838B839C8328EC3FE84FE55AE3C70156
:100D0000B6010E94C90B2D813E814F8158850E94FA
:100D1000C90B9B01AC0169817A818B819C810E9406
:100D2000000A69837A838B839C8321EF3BE845E04B
:100D300056EBC301B2010E94C90B2D813E814F8148
:100D400058850E94C90B9B01AC0169817A818B8116
:100D50009C810E94000A2B013C0120E030E040E52C
:100D600051E4C501B4010E946C0A87FF88C020E0ED
:100D700030E040EA52E4C701B6010E94C40B87FD8F
:100D80007EC020E030E040EE52E4C701B6010E9490
:100D90006C0A18160CF4BDC0A501940160E070E067
:100DA00080E591E40E94FF0920E030E040E85EE346
:100DB0000E94C90B4B015C0120E030E04EEB52E495
:100DC000C701B6010E94FF096B017C0120E030E001
:100DD000A9010E94C40B18160CF048C0A701960187
:100DE00060E070E088E891E40E94FF092EE33DEEA8
:100DF00040E75DE30E94C90B0E943C0C9B01AC01E3
:100E0000C501B4010E94C90B9B01AC01C301B20131
:100E10000E94FF092B013C01011110C020E030E0CD
:100E200040E052E4C301B2010E94FF0926E838E322
:100E30004EE05FE30E94C90B2B013C01C301B201EC
:100E400028960FB6F894DEBF0FBECDBFDF91CF91CD
:100E50000F91FF90EF90DF90CF90BF90AF909F9059
:100E60008F907F906F905F904F90089520E030E0DA
:100E700048E851E4C701B6010E94000AB7CF20E05C
:100E800030E04AEA52E4C501B4010E94C40B1816CE
:100E90001CF620E030E040EA52E4C701B6010E94AF
:100EA000C40B87FDB9CF20E030E04EEA52E4C70121
:100EB000B6010E946C0A18160CF4AECF20E030E0A8
:100EC0004AEA52E4C501B4010E94FF092DEC3CEC52
:100ED0004CEC5DE30E94C90B4B015C01A70196013C
:100EE00060E070E08EEA92E40E94FF092DEC3CEC99
:100EF0004CE45EE30E94C90B9B01AC01C501B40147
:100F00000E94C90B9B01AC01C301B2010E94000AFF
:100F100081CF20E030E04AEA52E4C501B4010E94EA
:100F2000C40B18160CF4BFCF77CF1F920F920FB6D9
:100F30000F9211242F933F934F935F936F937F935F
:100F40008F939F93AF93BF93EF93FF9387E691E0C7
:100F50000E946E01FF91EF91BF91AF919F918F9190
:100F60007F916F915F914F913F912F910F900FBEA5
:100F70000F901F9018951F920F920FB60F92112489
:100F80002F938F939F93EF93FF93E0917701F091CD
:100F900078018081E0917D01F0917E0182FD1BC08E
:100FA0009081809180018F5F8F73209181018217E2
:100FB00041F0E0918001F0E0E959FE4F958F809378
:100FC0008001FF91EF919F918F912F910F900FBE14
:100FD0000F901F9018958081F4CF1F920F920FB63B
:100FE0000F9211242F933F938F939F93AF93BF93AF
:100FF0008091630190916401A0916501B0916601B7
:1010000030915E0123E0230F2D3758F50196A11D85
:10101000B11D20935E018093630190936401A093BE
:101020006501B093660180915F0190916001A0918C
:101030006101B09162010196A11DB11D80935F0114
:1010400090936001A0936101B0936201BF91AF9151
:101050009F918F913F912F910F900FBE0F901F90F6
:10106000189526E8230F0296A11DB11DD2CFE7E601
:10107000F1E01382128288EE93E0A0E0B0E0848376
:101080009583A683B78384E091E09183808385EC88
:1010900090E09587848784EC90E09787868780EC42
:1010A00090E0918B808B81EC90E0938B828B82EC33
:1010B00090E0958B848B86EC90E0978B868B118EDD
:1010C000128E138E148EA4E0B2E082E015968C93FB
:1010D00015978BE016968C931697ECEEF0E0E49162
:1010E0001796EC931797E8EDF0E0E4911896EC93DF
:1010F000189740E85EE360E070E01D964D935D93C5
:101100006D937C9350970895789484B5826084BDE4
:1011100084B5816084BD85B5826085BD85B58160FB
:1011200085BD80916E00816080936E001092810079
:101130008091810082608093810080918100816034
:1011400080938100809180008160809380008091F5
:10115000B10084608093B1008091B0008160809381
:10116000B00080917A00846080937A0080917A0048
:10117000826080937A0080917A00816080937A0007
:1011800080917A00806880937A001092C10061E0BB
:101190008DE00E94640260E086E00E94640260E0EC
:1011A00087E00E94640260E08DE00E941802E091F6
:1011B0007701F091780182E08083E0917301F091F2
:1011C00074011082E0917501F09176018FEC8083BB
:1011D00010927F01E0917B01F0917C0186E0808399
:1011E000E0917901F0917A01808180618083E091C2
:1011F0007901F0917A01808188608083E0917901A2
:10120000F0917A01808180688083E0917901F0918A
:101210007A0180818F7D808364EF71E080E090E0CF
:101220000E94C50262E0809109020E94640280E38C
:1012300098EFAFEFBFEF80930D0290930E02A09353
:101240000F02B093100203E010E0C3E2D0E090E0A0
:10125000292E90E0392E60ED77E080E090E00E944A
:10126000C5020E94F702882349F080910A028B3060
:1012700061F020F08551823008F446C0C12CD12C99
:1012800080ECE82E8FE7F82E09C06091040270E030
:1012900090E080E00E94120B6B017C0180E00E94D4
:1012A000F8034B015C0181E00E94F8032B013C0133
:1012B000A7019601C701B6010E947C0C811110C0E4
:1012C000A5019401C501B4010E947C0C811108C0E4
:1012D000A3019201C301B2010E947C0C8823A9F1F1
:1012E0008CEA90E00E94DD018EE191E00E945204C0
:1012F0002114310409F4AFCF0E945A01882309F464
:10130000AACF0E940000A7CF6091040270E090E095
:1013100080E00E94120B20E030E040E853E40E949D
:10132000C90B6B017C016091050270E090E080E0E8
:101330000E94140BA70196010E94000A2DEC3CECC0
:101340004CEC5DE30E94C90BA7CF81EA90E00E94BC
:10135000DD0142E0C701B6010E94A30480E990E0EC
:101360000E94DD0142E0C501B4010E94A30481E2B4
:1013700091E00E9452044AE060E070E0CB010E94DC
:101380005F0468EE73E080E090E00E94C50261E0D7
:1013900086E00E94640260E086E00E941802C801B4
:1013A0000197F1F761E086E00E941802CE010197F3
:1013B000F1F760E086E00E94180260E087E00E949A
:1013C000640289E391E00E9452044AE061E070E027
:1013D00080E090E00E945F048BE591E00E9452045F
:1013E0008EE191E00E94520464E670E080E090E0BB
:1013F0000E94C50261E08DE00E94180279CF50582A
:10140000BB27AA270E94170A0C948A0B0E947C0B08
:1014100038F00E94830B20F039F49F3F19F426F432
:101420000C94790B0EF4E095E7FB0C94730BE92F09
:101430000E949B0B58F3BA1762077307840795073E
:1014400020F079F4A6F50C94BD0B0EF4E0950B2E6C
:10145000BA2FA02D0B01B90190010C01CA01A00106
:101460001124FF27591B99F0593F50F4503E68F161
:101470001A16F040A22F232F342F4427585FF3CFA2
:10148000469537952795A795F0405395C9F77EF473
:101490001F16BA0B620B730B840BBAF09150A1F0BC
:1014A000FF0FBB1F661F771F881FC2F70EC0BA0F42
:1014B000621F731F841F48F4879577956795B795CA
:1014C000F7959E3F08F0B0CF9395880F08F09927C5
:1014D000EE0F9795879508950E944F0B08F481E0D1
:1014E00008950E94850A0C948A0B0E94830B58F081
:1014F0000E947C0B40F029F45F3F29F00C94730BA1
:1015000051110C94BE0B0C94790B0E949B0B68F349
:101510009923B1F3552391F3951B550BBB27AA27AC
:1015200062177307840738F09F5F5F4F220F331FE6
:10153000441FAA1FA9F335D00E2E3AF0E0E832D0AE
:1015400091505040E695001CCAF72BD0FE2F29D0B1
:10155000660F771F881FBB1F261737074807AB0783
:10156000B0E809F0BB0B802DBF01FF2793585F4FF8
:101570003AF09E3F510578F00C94730B0C94BE0B1F
:101580005F3FE4F3983ED4F3869577956795B795DA
:10159000F7959F5FC9F7880F911D9695879597F9E5
:1015A0000895E1E0660F771F881FBB1F621773075E
:1015B0008407BA0720F0621B730B840BBA0BEE1F73
:1015C00088F7E09508950E94A30B88F09F5798F044
:1015D000B92F9927B751B0F0E1F0660F771F881F38
:1015E000991F1AF0BA95C9F714C0B13091F00E9452
:1015F000BD0BB1E008950C94BD0B672F782F8827A1
:10160000B85F39F0B93FCCF3869577956795B39578
:10161000D9F73EF490958095709561957F4F8F4FE7
:101620009F4F0895E89409C097FB3EF490958095EC
:10163000709561957F4F8F4F9F4F9923A9F0F92F98
:1016400096E9BB279395F695879577956795B79516
:10165000F111F8CFFAF4BB0F11F460FF1BC06F5FFC
:101660007F4F8F4F9F4F16C0882311F096E911C00E
:10167000772321F09EE8872F762F05C0662371F02F
:1016800096E8862F70E060E02AF09A95660F771F43
:10169000881FDAF7880F9695879597F90895990F1F
:1016A0000008550FAA0BE0E8FEEF16161706E8072C
:1016B000F907C0F012161306E407F50798F0621B4D
:1016C000730B840B950B39F40A2661F0232B242B22
:1016D000252B21F408950A2609F4A140A6958FEF41
:1016E000811D811D089597F99F6780E870E060E093
:1016F00008959FEF80EC089500240A9416161706AB
:1017000018060906089500240A94121613061406F2
:1017100005060895092E0394000C11F4882352F055
:10172000BB0F40F4BF2B11F460FF04C06F5F7F4F0D
:101730008F4F9F4F089557FD9058440F551F59F0F4
:101740005F3F71F04795880F97FB991F61F09F3FAE
:1017500079F087950895121613061406551FF2CFD7
:101760004695F1DF08C0161617061806991FF1CF27
:1017700086957105610508940895E894BB2766274E
:101780007727CB0197F908950E944F0B08F48FEF4C
:1017900008950E94DC0B0C948A0B0E947C0B38F09D
:1017A0000E94830B20F0952311F00C94730B0C9482
:1017B000790B11240C94BE0B0E949B0B70F3959F28
:1017C000C1F3950F50E0551F629FF001729FBB2738
:1017D000F00DB11D639FAA27F00DB11DAA1F649FD4
:1017E0006627B00DA11D661F829F2227B00DA11D87
:1017F000621F739FB00DA11D621F839FA00D611D0D
:10180000221F749F3327A00D611D231F849F600D2D
:10181000211D822F762F6A2F11249F5750409AF056
:10182000F1F088234AF0EE0FFF1FBB1F661F771FE2
:10183000881F91505040A9F79E3F510580F00C94AD
:10184000730B0C94BE0B5F3FE4F3983ED4F3869584
:1018500077956795B795F795E7959F5FC1F7FE2B4D
:10186000880F911D9695879597F9089519F416F4A8
:101870000C94790B0C94810C0E94A30BB8F3992360
:10188000C9F3B6F39F57550B87FF0E948F0C0024B6
:10189000A0E640EA900180585695979528F4805C20
:1018A000660F771F881F20F026173707480730F488
:1018B000621B730B840B202931294A2BA6951794A0
:1018C0000794202531254A2758F7660F771F881F70
:1018D00020F026173707480730F4620B730B840B90
:1018E000200D311D411DA09581F7B901842F91581C
:1018F000880F9695879508950E944F0B880B990B3A
:1019000008959F3F31F0915020F487957795679522
:10191000B795880F911D9695879597F908959150E1
:101920005040660F771F881FD2F70895A1E21A2E44
:10193000AA1BBB1BFD010DC0AA1FBB1FEE1FFF1F73
:10194000A217B307E407F50720F0A21BB30BE40BC3
:10195000F50B661F771F881F991F1A9469F760950A
:101960007095809590959B01AC01BD01CF010895C4
:10197000EE0FFF1F0590F491E02D0994F894FFCF2E
:10198000000000009001F0001D01F8014E012C0143
:1019900040016E616E00696E66006F7666000D0A2A
:1019A000002C205261696E5F446574656374696FD1
:1019B0006E52616E67653A20002C20446973746131
:1019C0006E63652061626F7665206D65616E207360
:0E19D0006561206C6576656C3A2000206D0024
:107E0000112484B714BE81FFF0D085E080938100F7
:107E100082E08093C00088E18093C10086E0809377
:107E2000C20080E18093C4008EE0C9D0259A86E02C
:107E300020E33CEF91E0309385002093840096BBD3
:107E4000B09BFECF1D9AA8958150A9F7CC24DD24C4
:107E500088248394B5E0AB2EA1E19A2EF3E0BF2EE7
:107E6000A2D0813461F49FD0082FAFD0023811F036
:107E7000013811F484E001C083E08DD089C08234E0
:107E800011F484E103C0853419F485E0A6D080C0E4
:107E9000853579F488D0E82EFF2485D0082F10E0AE
:107EA000102F00270E291F29000F111F8ED06801E7
:107EB0006FC0863521F484E090D080E0DECF843638
:107EC00009F040C070D06FD0082F6DD080E0C81688
:107ED00080E7D80618F4F601B7BEE895C0E0D1E017
:107EE00062D089930C17E1F7F0E0CF16F0E7DF06D8
:107EF00018F0F601B7BEE89568D007B600FCFDCFD4
:107F0000A601A0E0B1E02C9130E011968C91119780
:107F100090E0982F8827822B932B1296FA010C0160
:107F200087BEE89511244E5F5F4FF1E0A038BF0790
:107F300051F7F601A7BEE89507B600FCFDCF97BE46
:107F4000E89526C08437B1F42ED02DD0F82E2BD052
:107F50003CD0F601EF2C8F010F5F1F4F84911BD097
:107F6000EA94F801C1F70894C11CD11CFA94CF0C13
:107F7000D11C0EC0853739F428D08EE10CD085E9AC
:107F80000AD08FE07ACF813511F488E018D01DD067
:107F900080E101D065CF982F8091C00085FFFCCF94
:107FA0009093C60008958091C00087FFFCCF809118
:107FB000C00084FD01C0A8958091C6000895E0E648
:107FC000F0E098E1908380830895EDDF803219F02E
:107FD00088E0F5DFFFCF84E1DECF1F93182FE3DFCA
:107FE0001150E9F7F2DF1F91089580E0E8DFEE27F6
:047FF000FF270994CA
:027FFE00040479
:00000001FF
